:020000040800F2
:10000000F80D00246D0300086D5800080D55000818
:10001000DD57000857060008917200080000000034
:10002000000000000000000000000000C5600008A3
:10003000A10C0008000000006F580008A161000832
:100040008B0300088B0300088B0300088B03000858
:100050008B0300088B0300088B0300088B03000848
:100060008B0300088B0300088B030008510800086D
:100070005D0800088B0300088B0300088B03000851
:100080008B0300088B0300088B030008D5100008C1
:100090008B030008E11000088B0300088B030008A5
:1000A0008B0300088B0300088B0300088B030008F8
:1000B0008B0300088B0300088B0300088B030008E8
:1000C0008B0300088B0300088B0300088B030008D8
:1000D0008B0300086D7200088B030008797200081A
:1000E0008B0300088B030008000000008B0300084E
:1000F0008B0300088B0300088B0300088B030008A8
:100100008B0300088B0300088B0300088B03000897
:100110008B0300088B0300088B0300088B03000887
:100120008B0300088B0300088B0300088B03000877
:100130008B0300088B0300088B0300088B03000867
:1001400000000000000000000000000000000000AF
:100150008B0300088B0300088B03000885720008DE
:100160008B0300088B0300088B0300088B03000837
:100170008B0300088B0300088B03000800000000BD
:100180008B0300088B0300088B0300088B03000817
:100190008B0300088B0300088B0300088B03000807
:1001A0008B0300088B0300088B030008000000008D
:1001B0008B0300088B0300088B0300088B030008E7
:1001C0008B0300088B030008000000000000000003
:1001D00000000000000000008B0300080000000089
:1001E000000000000000000000000000000000000F
:1001F00000000000000000008B0300088B030008D3
:100200008B0300088B030008000000008B0300082C
:100210008B0300088B0300088B0300088B03000886
:100220008B030008000000008B03000800000000A2
:100230008B0300088B030008000000008B030008FC
:100240008B0300088B0300088B0300088B03000856
:100250008B0300088B0300088B0300088B03000846
:100260008B0300088B0300088B0300088B03000836
:100270008B0300088B0300088B03000800000000BC
:100280008B0300088B0300088B0300088B03000816
:10029000000000008B0300088B0300080000000032
:1002A000000000008B0300088B0300088B0300088C
:1002B0008B0300088B0300088B0300088B030008E6
:1002C0008B0300088B0300088B03000800F002F882
:1002D00000F03CF80AA090E8000C82448344AAF1A4
:1002E0000107DA4501D100F031F8AFF2090EBAE8A2
:1002F0000F0013F0010F18BFFB1A43F0010318475A
:100300000C7700002C770000103A24BF78C878C121
:10031000FAD8520724BF30C830C144BF04680C600B
:10032000704700000023002400250026103A28BF53
:1003300078C1FBD8520728BF30C148BF0B60704757
:100340001FB507F0CDFA1FBD10B510BD00F04AF97A
:100350001146FFF7F5FF07F047F800F068F903B41E
:10036000FFF7F2FF03BC00F06FF900000A48804776
:100370000A4880470A480047FEE7FEE7FEE7FEE737
:10038000FEE7FEE7FEE7FEE7FEE7FEE70548064973
:10039000064A074B70470000B91000083962000890
:1003A000CD020008F8070024F80D0024F809002405
:1003B000F809002453EA020C00F069802DE9F04BA3
:1003C0004FF00006002B1FBFB3FA83F503FA05F4C4
:1003D00024FA05F65E4012BF1643B2FA82F502FA1D
:1003E00005F4C5F120051EBF22FA05FC44EA0C0401
:1003F000203556EA044C4FEA144418BF641C4FF0F1
:1004000000084FF00009904271EB030C39D300292A
:1004100019BFB1FA81F701FA07F6B0FA80F700FACE
:1004200007F6C7F120071EBF20FA07FC46EA0C06B4
:100430002037B6FBF4FCA7EB0507103F07F01F0BB6
:10044000CBF120060CFA0BFB2CFA06F644BFB346A0
:100450000026202FA4BF5E464FF0000B5BEA060C7F
:1004600008BF4FF0010B19EB0B09ABFB027C48EB0B
:100470000608C01B06FB02CC0BFB03CC71EB0C0186
:10048000C1E70B46024641464846BDE8F08B13B52E
:100490004FF000004FF00001AFF30080BDE81C40BA
:1004A0007047032A40F2308010F0030C00F01580F2
:1004B00011F8013BBCF1020F624498BF11F801CB67
:1004C00000F8013B38BF11F8013BA2F1040298BFCC
:1004D00000F801CB38BF00F8013B11F0030300F036
:1004E0002580083AC0F0088051F8043B083A51F8DA
:1004F00004CBA0E80810F5E7121D5CBF51F8043BDF
:1005000040F8043BAFF30080D20724BF11F8013B51
:1005100011F801CB48BF11F8012B24BF00F8013BB3
:1005200000F801CB48BF00F8012B704710B5203A06
:10053000C0F00B80B1E81850203AA0E81850B1E89C
:100540001850A0E81850BFF4F5AF5FEA027C24BF52
:10055000B1E81850A0E8185044BF18C918C0BDE849
:1005600010405FEA827C24BF51F8043B40F8043B12
:1005700008BF7047D20728BF31F8023B48BF11F8C7
:10058000012B28BF20F8023B48BF00F8012B704721
:100590004FF0000200B5134694469646203922BF1C
:1005A000A0E80C50A0E80C50B1F12001BFF4F7AF67
:1005B000090728BFA0E80C5048BF0CC05DF804EB49
:1005C000890028BF40F8042B08BF704748BF20F8B7
:1005D000022B11F0804F18BF00F8012B70477047B5
:1005E00070477047754600F02BF8AE460500694627
:1005F000534620F00700854618B020B5FFF7C6FE29
:10060000BDE820404FF000064FF000074FF0000813
:100610004FF0000B21F00701AC46ACE8C009ACE894
:10062000C009ACE8C009ACE8C0098D46704710B5F8
:100630000446AFF300802046BDE81040FFF78FBEB0
:10064000004870479807002401491820ABBEFEE718
:10065000260002007047FEE770B50228044628D243
:10066000002926D08D7804EB4402088802EBC402EE
:10067000CE78104B65F31F40B1F9041040EA0660D4
:1006800003EBC20543F83200A98006F083FE00EEBA
:10069000901A85ED020A9FED081AB8EEE00A20EEE6
:1006A000010A85ED030A02F0D3FE01212861034807
:1006B000015570BD90060024CDCCCC3D62000024D5
:1006C00070B50228044612D2002910D0088804EB25
:1006D0004402074902EBC40201EBC205294606F0B9
:1006E0004BFF02F0B5FE012128610248015570BDA3
:1006F000900600246200002470B50228044612D23D
:10070000002910D0088804EB4402074902EBC40218
:1007100001EBC205294606F077FF02F099FE0121A0
:1007200028610248015570BD900600246200002433
:100730001CB505A2D2E90012CDE9001200216A46DB
:1007400000F006F81CBD00000101000000000000E0
:1007500070B5060014468AB00D460DD064B1074945
:1007600024226846FFF7E2FE22466946304600959D
:1007700001F0A0FF0AB070BD0120FBE74C79000832
:10078000AFF3008030B585B00C46C1B2C0F307228C
:10079000C0F3074300258DE80E00000E2B46CDE97F
:1007A00003050F222046032106F0D4FD05B030BD1D
:1007B00010B502F04DFE22494A69FAB1821A486129
:1007C00000EE102ADFED1F0AB8EE400A20EE200AE4
:1007D000B5EEC00AF1EE10FA11D910EE100A1A495E
:1007E00088420CDC194C207850B1012807D1607880
:1007F00050B101280BD002280BD105E0486110BD93
:10080000BDE8104004F0ECBF00F04CFA01E000F04D
:100810002DFB94ED020A40F20121BDEEC00A10EE5C
:10082000100AFFF7ADFF94ED030ABDE8104040F257
:100830000221BDEEC00A10EE100AFFF7A1BF0000B2
:10084000080000246F12833ACDCCCC3DFC05002477
:10085000014801F04BB80000DC020024014801F01F
:1008600045B8000054030024294A016891423AD057
:10087000274A1832914236D0254A3032914232D03E
:10088000234A483291422ED0214A603291422AD0E6
:100890001F4A7832914226D01D4A9032914222D08E
:1008A0001B4AA83291421ED01A4A91421BD0194AC3
:1008B0001832914217D0174A3032914213D0154A5C
:1008C000483291420FD0134A603291420BD0114A04
:1008D0007832914207D00F4A9032914203D00D4AAC
:1008E000A832914211D1CAB21823103AB2FBF3F2E6
:1008F0006FF30901032A02F00703074AD25CC265BD
:1009000000D9091D81650846704721F0FF01F9E70C
:1009100010000240100402407079000830B5224AED
:10092000012301689142CAB21BD01F4C1434A1426A
:1009300017D01D4C2834A14213D01B4C3C34A1428B
:100940000FD0194C5034A1420BD0174C6434A14243
:1009500007D0154C7834A14203D0134C8C34A142FB
:100960000CD11421114C083AB2FBF1F10F4A80323C
:1009700001F01F0504EB8101AB4010E00C4D182481
:10098000103A0D44B2FBF4F1A82D00D80831094A01
:1009900001F01F0402EB8101064AA340803260305F
:1009A00080E80E0030BD000008540258005802587C
:1009B000F0FBFDBF0008024010B50279531E072B63
:1009C0002DD8174C0168A1421BD0154C1434A142FC
:1009D00017D0134C2834A14213D0114C3C34A142FF
:1009E0000FD00F4C5034A1420BD00D4C6434A142B7
:1009F00007D00B4C7834A14203D0094C8C34A1426F
:100A000003D10849074C443102E00749064C443100
:100A100004EB8202C0E91B2101219940416710BD0E
:100A200008540258FC580258FC08024010B583696B
:100A30004FF0C074826A0146002053B1B3F5005FE5
:100A400015D072B1012A0CD0022A0AD0032A09D18A
:100A500004E01AB1012A06D0022A03D1C96AC901E9
:100A600000D5012010BDC96AA142FAD010BD002AEC
:100A7000F7D0012AF2D0022AF3D0032AF3D010BD16
:100A80002DE9F04F804E804FDFF8FC911836DFF8EB
:100A9000F8A148370468856D0AF1300ADFF8ECB137
:100AA0004C45DFF8ECC1DFF8ECE16DD0B4426BD01F
:100AB000544569D0BC4267D0DFF8D081A8F118084E
:100AC000444561D05C455FD064455DD074455BD0E2
:100AD000DFF8C481444557D0DFF8BC8108F118081D
:100AE000444551D0DFF8B08108F1300844454BD07F
:100AF000DFF8A48108F14808444545D0DFF8988123
:100B000008F1600844453FD0DFF88C8108F178088F
:100B1000444539D0DFF8808108F19008444533D04E
:100B2000DFF8748108F1A80844452DD0DFF86C8106
:100B3000444529D0DFF8648108F11408444523D0E6
:100B4000DFF8588108F1280844451DD0DFF84C81B2
:100B500008F13C08444517D0DFF8408108F15008FF
:100B6000444511D0DFF8348108F1640844450BD0C6
:100B7000DFF8288108F17808444505D0DFF81C81AA
:100B800008F18C08444509D1D0E91948C4F804801B
:100B9000C46E1CB1D0E91C48C4F8048004684C45FC
:100BA0002ED0B4422CD054452AD0BC4228D0374E47
:100BB000183EB44224D05C4522D0644520D0744510
:100BC0001ED0354EB4421BD0334E1836B44217D027
:100BD000314E3036B44213D02F4E4836B4420FD087
:100BE0002D4E6036B4420BD02B4E7836B44207D02F
:100BF000294E9036B44203D0274EA836B44215D1C0
:100C000090F85C603F2406F01F06B440AC600468B6
:100C1000256825F4802525602EE09A600068C16073
:100C2000BDE8F08F99600068C260F9E71B4EB442DE
:100C30001BD01A4E1436B44217D0184E2836B44280
:100C400013D0164E3C36B4420FD0144E5036B44238
:100C50000BD0124E6436B44207D0104E7836B442F0
:100C600003D00E4E8C36B442DAD190F85C60012489
:100C700006F01F06B4406C60046863608368402B14
:100C80000368CFD1C9E7000010000240880002408D
:100C9000A0000240B800024010040240085402586C
:100CA0007047000070B5674C2DED068B9FED660A0E
:100CB000207848B184ED060A84ED070A84ED080A1D
:100CC00084ED090A0020207040F6B83006F002FDDD
:100CD0005E489FED5F1AD0ED061AD0ED090A20EEAE
:100CE000210A60EE810A30EE601A70EE201AB0EE32
:100CF000410A06F02FFC00EE100AB8EEC09AB0EEE2
:100D0000610A06F027FCD4ED06AA00EE100AB3EE45
:100D1000008A79EE6A9AF8EEC08AB0EE690A06F0A7
:100D200045FBB4EEC80AF1EE10FABBEE00AA02D8F9
:100D300084ED069A09E0F5EEC09AF1EE10FA38FE5D
:100D40000A0A30EE2A0A84ED060AD4ED079A38EE34
:100D5000E99AB0EE490A06F029FBB4EEC80AF1EEB2
:100D600010FA02D8C4ED078A09E0B5EEC09AF1EE98
:100D700010FA38FE0A0A30EE290A84ED070A9FEDC0
:100D8000351A94ED080ADFED341A94ED062A20EEA8
:100D9000010A3249DFED320A02EE210A84ED080A27
:100DA00010EE100A94ED090A94ED072A884220EE0D
:100DB000010A02EE210A84ED090A01DDC4ED080AE8
:100DC0002848226A9FED281A824201D984ED081A28
:100DD00010EE102A8A4201DDC4ED090A616A8142DF
:100DE00001D984ED091A94ED080A06F063FABDEE04
:100DF000C00A10EE100A94ED090A05B206F05AFA7C
:100E0000FDEEC00A00EE105A10EE900AB8EEC00ACD
:100E100004B206F047FC00EE104A08EE100AB8EEE5
:100E2000C00A06F03FFC00EE100A0848F8EEC80AB7
:100E30003030B8EEC00AC0ED020A80ED030ABDEC06
:100E4000068B70BD0800002400000000CC050024C3
:100E50009CC4203E6666663FCDCCCC3D00803B45C1
:100E600000803B4500803BC500803BC570B5864C8B
:100E70002DED068B9FED858A854D40F2DC5620785E
:100E800088B100206070A06284ED0B8A84ED0C8A2A
:100E900084ED0D8A84ED0E8A84ED0F8A84ED108A2C
:100EA0006064207012E0607870B17A4805F060F9F3
:100EB00088B37848D0F80210E163D0F80A002064C3
:100EC00002F0C6FA606431E0A06A30B902F0C0FAFC
:100ED000A06285ED028A85ED038A02F0B9FAA16A63
:100EE000401AB04214D36A486B49303890ED060A74
:100EF000B0EEC00A10EE102A8A4209DA90ED090A13
:100F0000B0EEC00A10EE100A884201DA01206070CB
:100F1000BDEC068B70BDFFE702F09AFA616C401AD7
:100F2000B04203D984ED0F8A84ED108A94ED0F1A34
:100F3000D4ED100A31EE600A71EE201A06F00AFBB9
:100F400000EE100AB8EEC09AB0EE610A06F002FB9D
:100F500094ED0BAA00EE100AB3EE008A79EE4A9ADD
:100F6000F8EEC08AB0EE690A06F020FAB4EEC80ABC
:100F7000F1EE10FAFBEE00AA02D884ED0B9A09E01C
:100F8000F5EEC09AF1EE10FA38FE2A0A30EE0A0A9F
:100F900084ED0B0AD4ED0C9A38EEE99AB0EE490ACA
:100FA00006F004FAB4EEC80AF1EE10FA02D8C4ED65
:100FB0000C8A09E0B5EEC09AF1EE10FA38FE2A0A62
:100FC00030EE290A84ED0C0ADFED341A94ED0D0A97
:100FD0009FED331A94ED0B2A20EE210A3149DFED03
:100FE000320A02EE010A84ED0D0A10EE100A94EDA9
:100FF0000E0A94ED0C2A884220EE210A02EE010A24
:1010000084ED0E0A01DDC4ED0D0A2848626B9FEDE8
:10101000281A824201D984ED0D1A10EE102A8A4254
:1010200001DDC4ED0E0AA16B814201D984ED0E1AD7
:1010300094ED0D0A06F03EF9BDEEC00A10EE100A5E
:1010400094ED0E0A06B206F035F9FDEEC00A00EE88
:10105000106A10EE900AB8EEC00A04B206F022FB45
:1010600000EE104A08EE100AB8EEC00A06F01AFBAD
:1010700000EE100AF8EEC80AB8EEC00AC5ED020A82
:1010800085ED030A44E7000008000024000000008A
:10109000FC05002466060024CDCCCC3D6666663F88
:1010A000CDCCCC3D00803B4500803B4500803BC51E
:1010B00000803BC572B6FEE705480549083902685D
:1010C00042F00202026008688004FCD5704700000C
:1010D0000C480258014801F035BC00008000002493
:1010E000014801F02FBC00008000002400B589B049
:1010F00040F281120DF1080C0020012100904FF404
:10110000217301908CE80F000648694601F006FB48
:10111000044802F062F803480022012101F086FA37
:1011200009B000BD80000024F0B503684FF6FC71E3
:101130006D4C426BD3F884508D4345EA8205C3F869
:101140008450036853F8845F068F25F47F0545EAD1
:1011500006451D60836B654D9F180268D2F8883084
:101160008B4343EA8703C2F88830026852F8883F0D
:10117000868F23F4FE0343EA06431360066856F89D
:10118000A03FC26B8B4307EB420243EA820333600A
:10119000076857F8A03FB0F8406023F4FE0343EA25
:1011A00006433B60D0E9103603FB06220368D3F800
:1011B000B0608E4346EA8206C3F8B0600368B0F8B8
:1011C0004860D3F8B07027F4FE0747EA0646C3F834
:1011D000B060D0E91267036806FB0722D3F8AC6061
:1011E0008E4346EA8206C3F8AC60D0E91467036810
:1011F00006FB0722D3F8F0608E4346EA8206C3F866
:10120000F0600368B0F85860D3F8F07027F47C17EA
:1012100047EA0646C3F8F0600368876D53F8C06F6D
:1012200002EB47028E4346EA820119600168B0F87A
:101230005C20D1F8C03023F47C1343EA0242C1F8A9
:10124000C020016890F86020D1F8C03023F07C53B2
:1012500043EA0262C1F8C020416B04EB8101C16620
:10126000826B01EB82020267C36B02EBC30242672F
:10127000D0E91034634302EB83028267D0E9123471
:10128000634302EB8302C267D0E91434634302EB89
:101290008302C0F88020836D02EBC303C0F8843062
:1012A000C46D826E544303EB8403C0F88830046E2F
:1012B000544303EB8402C0F89020AA420AD9D0F824
:1012C0009C20032142F02002C0F89C2080F8981056
:1012D0000120F0BD002200E004C1D0F890308B4224
:1012E000FAD80020F0BD000000AC0040FCD3004064
:1012F000F0B58E680C69D1E9005744EA0604DFB105
:1013000045F080452C43866ED1E906C54F695E43A2
:1013100091F8203045EA0C05B1F80CC0D0F884E013
:10132000002047EA0363104F1D430EEB860345EA96
:101330000C45E3E8024511E044EA8544E3E714186C
:10134000155CA67894F803C094F801E0360445EAE9
:101350000C6446EA0E252C43001D10C3CC683C5D8E
:101360008442ECD8F0BD0000787900082DE9F84FF0
:10137000044602F06DF800903CB194F83500022864
:1013800006D0802161650020E4E00120BDE8F88FEF
:10139000C74DC74EC649183520683036DFF814836C
:1013A000DFF814938842DFF814A3DFF814B328D0D1
:1013B000A84226D0B04224D0404522D0484520D073
:1013C00050451ED058451CD0BD4A1832904218D006
:1013D000BC4A904215D0BB4A1832904211D0B94A4B
:1013E000303290420DD0B74A4832904209D0B54AC7
:1013F0006032904205D0B34A7832904201D0B14A6F
:101400009032026822F001020260206888422ED0E9
:10141000A8422CD0B0422AD0404528D0484526D0FA
:10142000504524D0584522D0A54A183290421ED0AB
:10143000A44A90421BD0A34A1832904217D0A14A26
:101440003032904213D09F4A483290420FD09D4A8A
:10145000603290420BD09B4A7832904207D0994A32
:101460009032904203D0974AA832904209D1026844
:1014700022F01E0202602068426922F0800242616E
:1014800003E0026822F00E020260276888493846AD
:101490008F424DD0A8424BD0B04249D0404547D0B2
:1014A000484545D0504543D0584541D0844918312E
:1014B00088423DD0834988423AD0824918318842D7
:1014C00036D080493031884232D07E494831884216
:1014D0002ED07C49603188422AD07A4978318842BE
:1014E00026D078499031884222D07649A831884266
:1014F0001ED0754988421BD073491431884217D0D9
:1015000071492831884213D06F493C3188420FD04D
:101510006D49503188420BD06B496431884207D005
:1015200069497831884203D067498C318F4214D1A0
:10153000206E016821F4807101600EE001F088FFE7
:101540000099401A052808D920226265032100204D
:1015500084F8351084F8340017E73868C007EDD1F7
:10156000534A0121206890422ED0A8422CD0B0428C
:101570002AD0404528D0484526D0504524D058454B
:1015800022D04F4B183398421ED04E4B98421BD05E
:101590004C4B1833984217D04A4B3033984213D0F3
:1015A000484B483398420FD0464B603398420BD09B
:1015B000444B7833984207D0424B9033984203D043
:1015C000404BA833984208D194F85C703F23A06D3B
:1015D00007F01F07BB40836007E094F85C30A06D04
:1015E00003F01F0301FA03F34360206890424DD0DB
:1015F000A8424BD0B04249D0404547D0484545D09D
:10160000504543D0584541D02D4A183290423DD0E4
:101610002C4A90423AD02B4A1832904236D0294A6E
:101620003032904232D0274A483290422ED0254A5A
:10163000603290422AD0234A7832904226D0214A02
:101640009032904222D01F4AA83290421ED01E4AA9
:1016500090421BD01C4A1432904217D01A4A2832AA
:10166000904213D0184A3C3290420FD0164A503262
:1016700090420BD0144A6432904207D0124A78321A
:10168000904203D0104A8C3290420BD1D4E9190217
:101690004260E06E30B1026822F480720260D4E9E8
:1016A0001C024260002084F8351084F834006DE696
:1016B00010000240580002407000024088000240C2
:1016C000A000024010040240085402582DE9F05FC7
:1016D00028B190F83510022904D0802141650120FD
:1016E000BDE8F09F764A764BDFF8D4C11832016826
:1016F0003033744CDFF8D0B16145744D744E754F82
:10170000DFF8D4E1DFF8D4A1DFF8D49131D09142F1
:101710002FD099422DD0A1422BD0594529D0A94292
:1017200027D0B14225D0B94223D0DFF8AC81A8F14F
:10173000780841451DD0DFF8A081A8F16008414537
:1017400017D0DFF89481A8F14808414511D0DFF89F
:101750008881A8F1300841450BD0DFF87C81A8F1E1
:101760001808414505D0714503D0514501D0494580
:101770002AD14FF0040880F8358061451FD091428E
:101780001DD099421BD0A14219D0594517D0A9426A
:1017900015D0B14213D0B94211D04F4878388142A8
:1017A0000DD04D486038814209D04B4848388142BD
:1017B00005D049483038814201D047481838086878
:1017C00020F00100086078E0D1F8008028F00108DE
:1017D000C1F800800168D1F8008028F00E08C1F837
:1017E00000800168614546D0914244D0994242D080
:1017F000A14240D059453ED0A9423CD0B1423AD056
:10180000B94238D0344A783A914234D0324A603AB8
:10181000914230D0304A483A91422CD02E4A303A48
:10182000914228D02C4A183A914224D0714522D0B6
:10183000514520D049451ED02A4A91421BD0294A01
:101840001432914217D0274A2832914213D0254AA8
:101850003C3291420FD0234A503291420BD0214A60
:101860006432914207D01F4A7832914203D01D4A18
:101870008C32914218D1026E0121136823F48073D7
:10188000136090F85C30826D03F01F039940516043
:10189000D0E919124A60C16E31B10A6822F480722F
:1018A0000A60D0E91C124A600122016D002380F811
:1018B000352080F8343001B18847002010E700005F
:1018C00010000240580002407000024088000240B0
:1018D000A0000240B800024088040240A004024078
:1018E000B804024008540258406D70472DE9FC5F6F
:1018F0000446F74E0020DFF8D88300904FF41652CC
:10190000F44808F11808A56DDFF8C493DFF8C0A308
:10191000016809F1300920680AF1480AB1FBF2F1C7
:10192000B04201912F68D5F800C0DFF8ACB335D0D4
:101930004146884232D0484530D050452ED0584597
:101940002CD0E5491831884228D0E349303188420B
:1019500024D0E1494831884220D0E04988421DD056
:10196000DE491831884219D0DC493031884215D01F
:10197000DA494831884211D0DFF860E30EF1600E99
:1019800070450BD0D54A7832904207D0D34B903374
:10199000984203D0D149A83188427DD194F85C2087
:1019A000082102F01F0201FA02F23A424AD0B04284
:1019B00032D0404530D048452ED050452CD05845E7
:1019C0002AD0C54A1832904226D0C34A30329042BB
:1019D00022D0C14A483290421ED0C04A90421BD009
:1019E000BE4A1832904217D0BC4A3032904213D0CF
:1019F000BA4A483290420FD0B84A603290420BD077
:101A0000B64A7832904207D0B44A9032904203D01E
:101A1000B24AA832904203D1026802F0040202E006
:101A2000026802F008026AB1026822F00402026051
:101A300094F85C0000F01F008140A960606D40F0E8
:101A40000100606594F85C00012100F01F008140F6
:101A5000394240D02068B04234D0404532D0484569
:101A600030D050452ED058452CD09B4A1832904249
:101A700028D0994A3032904224D0974A4832904236
:101A800020D0964A90421DD0944A1832904219D0E4
:101A9000924A3032904200E0AFE113D08F4A483290
:101AA00090420FD08D4A603290420BD08B4A7832F0
:101AB000904207D0894A9032904203D0874AA83298
:101AC00090427DD1406910F0800F04D0A960606D14
:101AD00040F00200606594F85C00042100F01F00F3
:101AE000814039423ED02068B04232D0404530D0AB
:101AF00048452ED050452CD058452AD0764A183229
:101B0000904226D0744A3032904222D0724A4832F3
:101B100090421ED0714A90421BD0704A18329042B7
:101B200017D06E4A3032904213D06C4A48329042FD
:101B30000FD06A4A603290420BD0684A78329042A5
:101B400007D0664A9032904203D0644AA83290424D
:101B50004ED1006810F0020F04D0A960606D40F013
:101B60000400606594F85C00102100F01F008140C3
:101B7000394258D02068B04234D0404532D0484530
:101B800030D050452ED058452CD0534A1832904270
:101B900028D0514A3032904224D04F4A48329042A5
:101BA00020D04E4A90421DD04C4A1832904219D053
:101BB0004A4A3032904215D0484A4832904200E0BA
:101BC00014E00FD0454A603290420BD0434A78323D
:101BD000904207D0414A9032904203D03F4AA83207
:101BE000904207D1006800F0080006E0006872E744
:101BF0000068B7E7006800F00400A0B1A9602068A1
:101C00000168490304D50068000308D5A16C07E00A
:101C10000168C90503D4016821F008010160216C45
:101C200009B12046884794F85C00202100F01F008D
:101C30008140394279D02068B04232D0404530D01E
:101C400048452ED050452CD058452AD0224A18322B
:101C5000904226D0204A3032904222D01E4A48324A
:101C600090421ED01D4A90421BD01C4A183290420E
:101C700017D01A4A3032904213D0184A4832904254
:101C80000FD0164A603290420BD0144A78329042FC
:101C900007D0124A9032904203D0104AA8329042A4
:101CA00003D1006800F0100002E0006800F00200BC
:101CB000B0B3A96094F835000428206801680FD0FB
:101CC00049037ED5006800032BD5616C2AE0000033
:101CD000100002407800002470000240100402400E
:101CE00021F0160101602068416921F08001416105
:101CF000206C08B9A06C20B12068016821F00801AF
:101D0000016094F85C303F21012003F01F030022A2
:101D10009940A96084F8350084F83420216D65E08D
:101D200003E0E16B09B120468847606D00287DD053
:101D3000606DC00759D02068042184F83510B04286
:101D40002BD0404529D0484527D0504525D058456F
:101D500023D09D49884220D09B49183188421CD00D
:101D600099493031884218D09849884215D097490E
:101D70001831884211D09549303188420DD09349AD
:101D80004831884209D091496031884205D08F4955
:101D90007831884201D08D499031016821F00101EC
:101DA000016020680099019A491C0091914202D873
:101DB0000168C907F6D10068C00710D003200FE002
:101DC000FFE70168C905ACD403680121002223F0B4
:101DD0001003036084F8351084F83420A1E7012053
:101DE00084F83500002084F83400E16C00291DD00F
:101DF00002B02046BDE8F05F0847754988421DD013
:101E000073491431884219D071492831884215D05C
:101E10006F493C31884211D06D49503188420DD014
:101E20006B496431884209D0694900E084E0783127
:101E3000884203D066498C3188427DD194F85C8019
:101E40000427016808F01F0807FA08F717EA0C0FC3
:101E5000009746D04F0744D500980F04686003D51B
:101E6000C8033CD5A16CC1E7880638D42068B042CD
:101E70002DD055496039884229D0484527D0504552
:101E800025D0584523D05049884220D04E4918319A
:101E900088421CD04C493031884218D04B49884286
:101EA00015D04A491831884211D04849303188420A
:101EB0000DD046494831884209D0704507D090423C
:101EC00005D0984203D04149A831884203D1016826
:101ED00021F0080102E0016821F004010160216C99
:101EE00084E7022707FA08F717EA0C0F00974ED08D
:101EF0008F074CD500980F04686003D5C80344D4FD
:101F0000616C73E7880640D42068B0422FD02E4918
:101F1000603988422BD0484529D0504527D05845B4
:101F200025D02949884222D02749183188421ED01D
:101F300025493031884200E044E018D023498842E6
:101F400015D022491831884211D0204930318842B9
:101F50000DD01E494831884209D0704507D09042C3
:101F600005D0984203D01949A831884203D10168AD
:101F700021F0140102E0016821F00A010160012151
:101F800084F83510002084F83400E16B2EE7082235
:101F900002FA08F212EA0C0F14D0090712D50168F0
:101FA00021F00E01016094F85C100120002201F084
:101FB0001F0100FA01F16960606584F8350084F85A
:101FC000342012E7BDE8FC9F880002401004024064
:101FD000085402582DE9F05F044601F039FA002C4C
:101FE00007467DD0E24E022120684FF00308DFF85B
:101FF00084934FF00005DFF880A3B042DFF87CB394
:1020000034D0DB4A1832904230D048452ED050456B
:102010002CD058452AD0D94A1832904226D0D74AD7
:102020003032904222D0D54A483290421ED0D44A13
:1020300090421BD0D24A1832904217D0D04A303248
:10204000904213D0CE4A483290420FD0CC4A6032F0
:1020500090420BD0CA4A7832904207D0C84A903298
:10206000904203D0C64AA83290427DD184F8351000
:10207000B04284F834502ED0BD49183188422AD05D
:10208000484528D0504526D0584524D0BB49183162
:10209000884220D0B949303188421CD0B7494831F4
:1020A000884218D0B649884215D0B54918318842BF
:1020B00011D0B349303188420DD0B14948318842FE
:1020C00009D0AF496031884205D0AD4978318842A6
:1020D00001D0AB499031016821F00101016008E0B5
:1020E00025E100BF01F0B4F9C01B052801D920216A
:1020F0001AE120680068C007F4D1D4E9020321681E
:10210000103418438E4694E88410D4E903380968E3
:102110003A4310439B4A40EA0C0067691843114058
:10212000103C40EA0800042F40EA010003D1D4E942
:102130000B12114308436168A1F12902052A0BD94A
:10214000163A032A08D9083A012A05D9083A032A77
:1021500002D97439032901D840F48010CEF8000068
:102160002068676A406900E020E0042F20F0070043
:1021700047EA00070DD1D4E90A01074349B12046D7
:10218000FEF754FC28B140206065012184F8351029
:10219000CDE0206847612046FEF766FB94F85C209E
:1021A0003F2102F01F029140816055E0764A904243
:1021B0001BD0754B1433984217D0734B2833984279
:1021C00013D0714B3C3398420FD06F4B5033984231
:1021D0000BD06D4B6433984207D06B4B78339842E9
:1021E00003D0694B8C3398427ED184F8351084F843
:1021F0003450664B0168A26801EA030E402A74D08D
:10220000802A73D05FF00002D4E90378D4E9053165
:1022100042EAD70242EAD8085B4AD4E9077C48EA96
:10222000D30848EAD10141EAD701524241EA1C11E0
:10223000142341EA0E01016020681044B0FBF3F062
:102240008000E0652046FEF70FFB94F85C2001213A
:1022500002F01F02914041602068B04257D04449CB
:102260001831884253D0484551D050454FD0584539
:102270004DD042491831884249D0404930318842D6
:1022800045D03E494831884241D03D4988423ED000
:102290003B49183188423AD039493031884236D0EA
:1022A00037494831884232D03549603188422ED092
:1022B0003349783188422AD031499031884226D03A
:1022C0002F49A831884222D02F4988421FD02E4959
:1022D000143188421BD02C492831884217D02A4912
:1022E0003C31884213D002E01DE017E018E0264997
:1022F000503188420BD024496431884207D02249AA
:102300007831884203D020498C31884229D1204637
:10231000FEF704FBA06880280CD00CE0102273E7C5
:102320004FF4804270E74021616584F835800120D8
:10233000BDE8F09F6560216E20790860D4E919013D
:1023400041606068401E072808D82046FEF734FB2D
:10235000E06E0560D4E91C01416002E0E566256796
:1023600065670120656584F835000020E0E700001E
:10237000100002404000024058000240700002403D
:10238000100402403F8010FE085402580F00FEFF68
:102390002DE9F84F04008C464FF00000009014D057
:1023A00094F83400012812D094F83550012000210F
:1023B00084F83400012D0CD0C0026065012000902B
:1023C00084F834100098BDE8F88F0120FBE7022064
:1023D000F9E78C4D0226206884F83560A8428A4DC2
:1023E00061658A4E8A4FDFF82C82DFF82C92DFF885
:1023F0002CA2DFF82CB226D0A84224D0B04222D0A2
:10240000B84220D040451ED048451CD050451AD077
:10241000584518D08349884215D0824918318842DE
:1024200011D08049303188420DD07E4948318842F0
:1024300009D07C496031884205D07A497831884298
:1024400001D078499031016821F0010101606146B5
:102450002046FEF715FB6B49206888422CD0A84225
:102460002AD0B04228D0B84226D0404524D0484592
:1024700022D0504520D058451ED06A4A90421BD0E9
:10248000684A1832904217D0664A3032904213D0D0
:10249000644A483290420FD0624A603290420BD078
:1024A000604A7832904207D05E4A9032904203D020
:1024B0005C4AA83290420CD1026822F01E0242F01F
:1024C00016020260206C88B12068026842F008029F
:1024D0000BE0026822F00E0242F00A020260206C59
:1024E00020B12068026842F004020260206888423D
:1024F0004BD0A84249D0B04247D0B84245D0404521
:1025000043D0484541D050453FD058453DD0454A3D
:1025100090423AD0434A1832904236D0414A303243
:10252000904232D03F4A483290422ED03D4A6032EB
:1025300090422AD03B4A7832904226D0394A903293
:10254000904222D0374AA83290421ED0364A90425A
:102550001BD0354A1432904217D0334A2832904269
:1025600013D0314A3C3290420FD02F4A5032904221
:102570000BD02D4A6432904207D02B4A78329042D9
:1025800003D0294A8C3290420DD1206E0268D203CA
:1025900003D5026842F480720260E06E18B10268EE
:1025A00042F4807202602068884226D0A84224D07B
:1025B000B04222D0B84220D040451ED048451CD061
:1025C00050451AD0584518D01649884215D015499B
:1025D0001831884211D01349303188420DD0114949
:1025E0004831884209D00F496031884205D00D49F1
:1025F0007831884201D00B499031016841F00101E6
:102600000160DFE610000240280002404000024066
:10261000580002407000024088000240A0000240C2
:10262000B8000240100402400854025810B590F857
:102630009830012B09D0022B07D0D0F89C1041F024
:102640000201C0F89C10012010BD03689C6D0C4273
:1026500003D1DC6D44F0010404E09C6D31EA040414
:102660001FD00324DC658B0505D50368D3F8E04053
:102670001443C3F8E0404B0505D50368D3F8E440A4
:102680001443C3F8E4400068084A01EA0203446DB9
:10269000074A1C434465106840EA917010600020AE
:1026A00010BDDC6D44F00204DCE70000FFFFCF3F0B
:1026B00014A8004070B5044690F89800022804D091
:1026C000D4F89C0040F008000DE02068D0F8C0303D
:1026D00013F07C5F0BD0D0F8C4309B020CD5D4F83B
:1026E0009C0040F40070C4F89C00012070BDD4F838
:1026F0009C0040F02000F6E7D0F8C400C0F3044589
:1027000020462B46FEF7F4FD21680120A840C1F8C1
:10271000D000C4F89400002070BD704770B590F8E8
:102720009820012A09D0022A07D0D0F89C1041F045
:102730000201C0F89C10012070BD0B68CA6883B10B
:102740000B69072A43EA427325D00C7A4A6942EAA8
:1027500084724968006F00EBC100C0E900320020BC
:1027600070BD072A0DD00C7AD6060D8A4B6943EA54
:10277000847246EA0543C06E49681A4340F8212036
:10278000EDE70B8A4FF06055D1E9062442EA034297
:1027900045EA0423EFE78A69DBE7704770470000EA
:1027A000F0B590F898500024022D04D0D0F89C1079
:1027B00041F0080130E0402905D0412930D0056DB5
:1027C0008D4220D94DE00568D5F8A04014F4FE0FE5
:1027D00019D0D5F8A44064061AD0D5F8A440D5F88D
:1027E000A460C4F30524F6010AD5D5F8A06016F05C
:1027F000004F05D5D5F8A050641CC5F306452C4004
:10280000466F456C2BE0D0F89C1041F0200103E0AE
:10281000D0F89C1041F48071C0F89C100120F0BDEC
:102820000568D5F8B04014F4FE0FECD0D5F8B440EC
:102830006406EDD0D5F8B440D5F8B460C4F30524EF
:10284000F6010AD5D5F8B06016F0004F05D5D5F8D9
:10285000B050641CC5F306452C40866FC56C6543BB
:1028600002E0456DC66F4D4306EB85052E6816F0F8
:10287000804656602E6836D026F060461660D5F841
:1028800000C000262D4F0CF0005CC2F808C0D5F83F
:1028900000C00CF0004CC2F810C0B5F804C01FFA1C
:1028A0008CFCC2F81CC0D5F804C0CCF3034CC2F8B1
:1028B0000CC0D5F804C00CF4801CC2F814C0D5F8C4
:1028C00004C00CF4001CC2F818C0D5F804C0CCF346
:1028D000066CC2F820C0D5F804C008354FEADC7C8D
:1028E000C2F824C007E0C6F38A46C7E715F806C059
:1028F00003F806C0761CD2F80CC017F80CC0B4451B
:10290000F4D840290AD041290CD020294FF00102E7
:102910000CD200688A40C0F898200DE00068C0F82A
:10292000A84009E00068C0F8B84005E0006801F080
:102930001F018A40C0F89C200020F0BD7879000873
:10294000704700002DE9FF5FDFF80CB304460BF180
:102950000401DBF8000025680F68AA468007D5F857
:102960005090696DD5F850806E6D2A6DD5F854C0C1
:102970002B6D00EA8770009009F470496F6D286D27
:1029800001EA09010191DAF85410DAF85490DAF802
:10299000505008F00F0806EA0806029602F0F0020E
:1029A00003F071536FEA09061F4000F060700CEAF3
:1029B000020CCDF80CC0F20501EA00090CD4E84382
:1029C000C00509D400214FF48073CAF85030CBF809
:1029D00000102046FFF7B4FF700512D4E84340050D
:1029E0000FD4206800234FF48068D0F8DC20D0F8A2
:1029F000E410C0F85080CBF800301140204600F0C1
:102A00000BFCDFF858A2009850B12268830F00EA4F
:102A10000A001065CBF8003020460099FFF77DFED4
:102A2000019850B12268830F00EA0A001065CBF8C4
:102A300000302046019900F0F1FB029850B1226865
:102A4000830F00EA0A001065CBF800302046029997
:102A500000F080FA039850B12268830F00EA0A0060
:102A60001065CBF800302046039900F0B5FB300527
:102A70000CD4E843000509D4236800204FF4006219
:102A80001A65CBF80000204600F0C9FBB00512D44F
:102A9000E84380050FD4206800234FF40078D0F875
:102AA000D820D0F8E010C0F85080CBF800301140AA
:102AB000204600F0B2FB30030CD4E843000309D4F5
:102AC000236800204FF400221A65CBF8000020464E
:102AD00000F03EFAF0030CD4E843C00309D42368A5
:102AE00000204FF480321A65CBF80000204600F039
:102AF00092FB70030CD4E843400309D42268002001
:102B00004FF480231365CBF80000204600F082FBD1
:102B1000B0030FD4E84380030CD4236800204FF4A3
:102B200000321A65CBF80000D4F89C0040F0800019
:102B3000C4F89C00B9F1000F0BD022684FEA9973DA
:102B400009EA0A001065CBF8003049462046FFF735
:102B500025FE5FB12268BB0F07EA0A001065CBF8BB
:102B60000030D4F89C003843C4F89C003C492068ED
:102B7000884268D1606881468068800763D0D9F850
:102B80002060D9F82410D9F82080D9F82400D9F889
:102B900020C0D9F82470D9F82030D9F82450D9F8B9
:102BA000202003F4FC4306F00F0AD9F824601D40EE
:102BB000D9F824B008F030080CF4C07C02F4F022FC
:102BC00011EA0A0100EA080807EA0C0706EA020609
:102BD000D9F820A004D0C9F82010204600F017FB37
:102BE000B8F1000005D0616808624146204600F057
:102BF00010FB6FEA0B0040060ED46FEA0A00400695
:102C00000AD460684021C36BC26B01622046190C74
:102C100002F03F0200F0FCFA2FB16068076239460B
:102C2000204600F0F3FA35B160680562D4F89C00E4
:102C30002843C4F89C0036B160680662D4F89C0052
:102C40003043C4F89C00D4F89C00002802D02046F1
:102C5000FFF7A3FDBDE8FF9F10A80040FFFFCF3F97
:102C600000A000402DE9F04194B08D494C2204466B
:102C70006846FDF75BFC64B18A4D2068A84202D12A
:102C800000F58070606094F898004FF0000820B163
:102C900008E0012014B0BDE8F081204684F8998056
:102CA00000F002F92068816921F01001816100F0D3
:102CB000CFFB0327064604E000F0CAFB801B0A286E
:102CC00011D8206880690007F6D42068816941F036
:102CD0000101816100F0BCFB06460DE000F0B8FB8D
:102CE000801B0A2808D9D4F89C0040F00100C4F8E1
:102CF0009C0084F89870CCE720688069C007EDD00C
:102D00002068816941F002018161207C01282068EE
:102D1000816937D041F040018161607C01282068E1
:102D2000816932D021F480418161A07C0128206832
:102D300081692DD041F4805181612068A268816948
:102D400021F44071114381612068816921F0A4015F
:102D500081612068016921F010010161E0680128AA
:102D600019D010B302281BD02068816941F080017E
:102D700081612068016941F010010161E068032868
:102D80000ED012E021F04001C6E741F48041CBE7CC
:102D900021F48051D0E72068816941F0040103E00B
:102DA0002068816941F020018161207E6FF0FF027F
:102DB000D4E90773A68A1102400602EB0727A0F1A7
:102DC0000070384327685B1E184301EB064630430A
:102DD000F861A068B0F5407F11D104F12800A68CFD
:102DE0006FF00F0C89C801EB0641401E02EB032275
:102DF000104322680CEB071318430843D060206E81
:102E000030B12068626ED0F8C0101143C0F8C01015
:102E1000D4E917126846D14209D02168A36E51F84F
:102E2000C82F50F8233022F007021A430A60216CA1
:102E300049B12168626C51F8BC3F50F8226023F020
:102E4000070232430A60A16C51B12168E36C51F86A
:102E5000BC2F50F8233022F0700242EA03120A60BD
:102E6000216D51B12168626D51F8BC3F50F82200CC
:102E700023F4E06242EA002008602068A84204D1FE
:102E80006068816821F003018160C4F894800121A9
:102E9000C4F89C8084F898102046FEF745F9F9E6BE
:102EA0008879000800A0004010B5B4B00446142191
:102EB0002EA8FDF76DFBB8216846FDF769FB214997
:102EC000206888423CD100204FF40041CDE9001039
:102ED0004A0368461B9200F033FD08B1FEF7EAF89A
:102EE0001948016841F480710160006800F4807045
:102EF000339015480C38016841F008010160006802
:102F00000923032100F00800339000202E910222B3
:102F10002EA9CDE92F20CDE931030C4800F080F92E
:102F200000220121132000F059FB132000F048FB80
:102F300000220121152000F051FB152000F040FB7C
:102F400034B010BD00A00040EC440258000C025800
:102F50007047000000B5C9078DB07DD040216B4699
:102F600002AAFFF71DFC002876D1029840F28121C9
:102F70008842A0F2812117D008DCA0F5807081384A
:102F800009D001280AD002281CD10AE0012910D05A
:102F9000022917D112E00020694607E000206946A7
:102FA00009E0002069460BE001206946FDF754FB6B
:102FB00008E001206946FDF783FB03E00120694634
:102FC000FDF79AFB824800F1B00102680A6082882E
:102FD0008A8090ED020A81ED020A90ED030A81EDEC
:102FE000030A02690A61828A8A82827D8A75C27DA9
:102FF000CA75027E0A76427E4A76827E8A76C27ED2
:10300000CA76027F0A77427F4A77827F8A77C27FB9
:10301000CA7790F8202081F8202090F8212081F8AC
:10302000212090F8222081F8222090F8232081F896
:10303000232090F8242081F8242090F8252081F87E
:10304000252090F8262081F8262090F8272081F866
:10305000272090F8282000E0B8E081F8282090F898
:10306000292081F8292090F82A2081F82A2090F838
:103070002B2081F82B2090F82C2081F82C2090F820
:103080002D2081F82D2090F82E2081F82E2090F808
:103090002F2081F82F2090F8302081F8302090F8F0
:1030A000312081F8312090F8322081F8322090F8D8
:1030B000332081F8332090F8342081F8342090F8C0
:1030C000352081F83520C28ECA8690F8382081F8E4
:1030D000382090F8392081F8392090F83A2081F88A
:1030E0003A2090F83B2081F83B2090F83C2081F872
:1030F0003C2090F83D2081F83D2090F83E2081F85A
:103100003E2090F83F2081F83F2090F8402081F841
:10311000402090F8412081F8412090F8422081F829
:10312000422090F8432081F8432090F8442081F811
:10313000442090F8452081F8452090F8462081F8F9
:10314000462090F8472081F8472090F8482081F8E1
:10315000482090F8492081F8492090F84A2081F8C9
:103160004A2090F84B2081F84B2090F84C2081F8B1
:103170004C2090F84D2081F84D2090F84E2081F899
:103180004E2090F84F2081F84F2090F8502081F881
:10319000502090F8512081F8512090F8522081F869
:1031A000522090F8532081F8532090F8542081F851
:1031B000542090F8552081F8552090F8560081F859
:1031C0005600044800780349891E48700DB000BDC0
:1031D0009006002462000024704790F8981001299E
:1031E00007D0D0F89C1041F00401C0F89C100120D9
:1031F0007047022180F89810002201688B6923F043
:1032000001038B61C0F89C201046704770477047DF
:1032100070477047704770477047704770477047F6
:103220002DE9F84F03247C4D00234FF001094FF0A6
:10323000B04B4FF00F0AE7E009FA03F632407BD0BB
:103240000F7907F00307012F01D0022F1AD18768E9
:103250004FEA430ED1F80CC004FA0EF827EA08072B
:103260000CFA0EFC4CEA070CC0F808C0476891F84D
:1032700004C0B743CCF3001C0CFA03FC4CEA070C67
:10328000C0F804C00E79F643B60702D18E68012E4D
:103290000BD0C7684FEA43088E6804FA08FC27EA97
:1032A0000C0706FA08F63E43C6600E7906F00306E0
:1032B000022E12D1DE080F694FEA437C00EB86062E
:1032C000B646366A4FEADC6C0AFA0CF807FA0CF7D5
:1032D00026EA08063743CEF820700F7906684FEAD1
:1032E000430807F0030704FA08FC07FA08F726EA80
:1032F0000C06374307604E6816F4403F1CD0474E1B
:10330000376847F00207376036689F0706F0020605
:10331000009623F0030606F1B046B6463F0FD6F8F6
:103320000864DFF8FC800AFA07FC404526EA0C0630
:1033300003D14FF0000C3AE065E0DFF8E8C06045EB
:1033400002D14FF0010C32E0DFF8DCC0604502D161
:103350004FF0020C2BE0DFF8D4C0604502D14FF0F3
:10336000030C24E0DFF8C8C0604502D14FF0040C24
:103370001DE0DFF8C0C0604502D14FF0050C16E03B
:10338000DFF8B4C0604502D14FF0060C0FE0DFF863
:10339000ACC0604502D14FF0070C08E0DFF8A0C0D8
:1033A000604502D14FF0090C01E04FF00A0C0CFA15
:1033B00007FC4CEA060CCEF808C44F68DBF8006046
:1033C000FF0226EA020600D516435F46CBF80060EE
:1033D000D1F804C0DBF804605FEA8C2C26EA020610
:1033E00000D516437E606E684F6826EA0206BF036A
:1033F00000D516436E602E684F6826EA0206FF036A
:1034000000D516432E605B1C0A6832FA03F67FF47F
:1034100013AFBDE8F88F000080000058F444025854
:10342000000002580004025800080258000C02581C
:10343000001002580014025800180258001C0258CC
:10344000002402580AB1816170470904FBE70000BB
:1034500001488068704700006C00002402488168C1
:1034600002781144816070476C000024032010B57D
:1034700000F0D4F801F076F80F4A10491468136888
:10348000C4F3032203F00F038A5CC95C02F01F023D
:1034900001F01F01D0400A4A20FA01F111600949E8
:1034A00008600F2000F010F808B1012010BD00F0F6
:1034B00079F8002010BD000018440258FC7900087B
:1034C0007C0000247800002470B50D4D0446287857
:1034D000A0B14FF47A71B1FBF0F00A490968B1FB71
:1034E000F0F001F06EFB48B9102C07D20022214603
:1034F000501E00F073F800206C6070BD012070BD9C
:103500006C00002478000024154BF0B5083B42788D
:1035100013491A600B680A1F23F001030B6043680C
:103520001360057BC67A827A437B2D07847B45EA4C
:103530000665C77B90F809C0067A90F800E045EA76
:10354000C24040EA834040EA444040EA074040EA43
:103550000C2040EA460040EA0E000860F0BD000082
:10356000A0ED00E0BFF35F8F044800210368034A29
:1035700023F48033036070321160704724ED00E063
:10358000074A40F00100064970321060086840F4B4
:1035900080300860BFF34F8FBFF36F8F704700001C
:1035A00024ED00E0054808B5016841F00201016022
:1035B000006800F00200009008BD0000F4440258CA
:1035C000002809DB410900F01F028900012001F1F8
:1035D000E0219040C1F80001704700000E4BF0B4AC
:1035E0001B680D46C3F30223C3F10706042E00D95E
:1035F0000426191D072901D2002300E0DB1E012447
:1036000004FA06F19C40491E2940641E994014406A
:103610002143F0BC03F03DBE0CED00E0064900F094
:10362000070210B54FF6FF040868044B204040EA3B
:1036300002201843086010BD0CED00E00000FA0500
:10364000134970B50A68D243520705D5096801F0DD
:103650000701814213D118E00A6822F007020243F1
:103660000A60FFF7F5FE0A4D4FF47A760446083DEE
:1036700007E000BFFFF7ECFE001BB04201D90120BC
:1036800070BD2868C0438004F4D4002070BD0000E1
:103690000C48025810B500F01FFF05490968054A9B
:1036A000C1F30211515C01F01F01C84010BD0000C0
:1036B00020440258FC790008494930B5484C0B1D9C
:1036C0000A68143409681D68246802F00303C5F30E
:1036D0000012C1F30531C4F3CC04002914FB02F23B
:1036E00000EE102AF8EE400A75D03F4A9FED3D1AD1
:1036F000B7EE000A6BB1DFED3D1A012B01D0022BB2
:1037000064D002EE101A1168F8EE422A81EEA22A65
:1037100021E0334C283C23689B0612D5344B2468A7
:1037200001EE901A1168C4F3C104F8EE612AE34077
:1037300001EE903AC1F30801F8EE611A81EEA22A77
:103740000BE001EE901ADFED2B2A00BFF8EE611AB4
:10375000116882EEA12AC1F3080101EE901A1168E6
:10376000F8EE611A40EE811A71EE800A62EE200ACC
:10377000C1F3462101EE101AB8EE411A31EE001ADB
:10378000C0EE811ABCEEE11A80ED001A1168C1F397
:10379000064101EE101AB8EE411A31EE001AC0EEE1
:1037A000811ABCEEE11A80ED011A1168C1F30661BD
:1037B00001EE101AB8EE411A31EE000A80EE801ABE
:1037C000BCEEC10A80ED020A30BD04E001EE901AA1
:1037D000DFED092ABAE70021016041608160F3E76B
:1037E0002844025800000039384402580024744A22
:1037F0000090D0030024744C20BCBE4B494930B526
:10380000484C0B1D0A681C3409681D68246802F0C6
:103810000303C5F30022C1F30551C4F3CC0400290E
:1038200014FB02F200EE102AF8EE400A75D03F4A6F
:103830009FED3D1AB7EE000A6BB1DFED3D1A012B8B
:1038400001D0022B64D002EE101A1168F8EE422A61
:1038500081EEA22A21E0334C283C23689B0612D536
:10386000344B246801EE901A1168C4F3C104F8EED9
:10387000612AE34001EE903AC1F30801F8EE611AC3
:1038800081EEA22A0BE001EE901ADFED2B2A00BF99
:10389000F8EE611A116882EEA12AC1F3080101EE67
:1038A000901A1168F8EE611A40EE811A71EE800AE2
:1038B00062EE200AC1F3462101EE101AB8EE411A59
:1038C00031EE001AC0EE811ABCEEE11A80ED001A4A
:1038D0001168C1F3064101EE101AB8EE411A31EE3B
:1038E000001AC0EE811ABCEEE11A80ED011A1168CF
:1038F000C1F3066101EE101AB8EE411A31EE000A6A
:1039000080EE801ABCEEC10A80ED020A30BD04E0F0
:1039100001EE901ADFED092ABAE70021016041604B
:103920008160F3E7284402580000003940440258FF
:103930000024744A0090D0030024744C20BCBE4B79
:103940002DE9FE4F0546DFF800A450F8081B0024BF
:10395000FD4FC943019005F1280026460AF1240ACB
:10396000009008011DD4686E50B1B0F5801F0CD0D6
:10397000B0F5001F0ED0B0F5401F1ED001240FE09F
:10398000386840F40030386017E00198022101F0F7
:103990006FFF03E00098022101F0FAFF04000CD051
:1039A00026462888C043C00523D4A86D05281ED20A
:1039B000DFE800F00C11161B1B006A6EDAF800102D
:1039C00021F440111143CAF80010EAE7386840F4C6
:1039D0000030386009E00198002101F049FF03E060
:1039E0000098002101F0D4FF0446C4B100E0012496
:1039F00026462888DFF85083C04308F12C0840058C
:103A00002FD4D5F8A400B0F5C00F28D010DCB8B181
:103A1000B0F5001F19D0B0F5800F0FD11AE0AA6DD4
:103A2000DAF8001021F007011143CAF80010E0E7AE
:103A3000B0F5000F13D0B0F5200F10D001240FE027
:103A4000386840F40030386009E00198002101F046
:103A50000FFF03E00098002101F09AFF044694B1A3
:103A600026462888C043000530D4D5F8A800B0F118
:103A7000407F29D011DCC0B1B0F1807F1AD0B0F105
:103A8000007F10D11BE0D5F8A420D8F8001021F455
:103A900060011143C8F80010E3E7B0F1806F13D064
:103AA000B0F1A06F10D001240FE0386840F400306E
:103AB000386009E00198002101F0DAFE03E0009887
:103AC000002101F065FF044694B126462868DFF81E
:103AD00078B2C0430BF1200B80011FD4E86CD8B141
:103AE00010280FD0202812D0302815D0012414E03F
:103AF000D5F8A820D8F8001021F0E0611143C8F8EB
:103B00000010E3E7386840F40030386004E00198C2
:103B1000022101F0ADFE044674B126462888C04358
:103B2000C0042BD4E86DB0F5005F20D00DDCA0B14F
:103B3000B0F5805F0FD115E0EA6CDBF8001021F0E2
:103B400030011143CBF80010E8E7B0F5405F13D027
:103B5000B0F5804F10D001240FE0386840F40030F9
:103B6000386009E00198002101F082FE03E000982E
:103B7000002101F00DFF04468CB126462888C04381
:103B8000800429D4286EB0F5403F23D010DC08B360
:103B9000B0F5803F14D0B0F5003F0FD115E0EA6DCD
:103BA000DAF8001021F4E0411143CAF80010E5E70B
:103BB000B0F5802F0ED0B0F5A02F0BD001240AE075
:103BC0000198012101F054FE03E00098012101F069
:103BD000DFFE044694B126462888C04340042AD418
:103BE000D5F8AC00B0F1405F23D010DC08B3B0F1E1
:103BF000805F14D0B0F1005F0FD115E02A6EDAF8C3
:103C0000001021F4E0211143CAF80010E4E7B0F1FC
:103C1000804F0ED0B0F1A04F0BD001240AE00198E4
:103C2000012101F025FE03E00098012101F0B0FE22
:103C3000044674B126462888C04300041FD4E86EA9
:103C4000D8B1B0F1805F0ED0B0F1005F10D0012488
:103C500014E0D5F8AC20D8F8001021F0E041114371
:103C6000C8F80010E7E7386840F40030386004E036
:103C70000198012101F0FCFD044674B12646286834
:103C8000C043C0011ED4A86CD0B101280ED00228B8
:103C900011D0032814D0012413E0EA6EDAF80010E2
:103CA00021F040511143CAF80010E8E7386840F4A9
:103CB0000030386004E00198022101F0D9FD04468B
:103CC0006CB126462868C043400255D41F4801689D
:103CD00041F480710160FFF7BBFB81460EE0AA6CE6
:103CE000DBF8001021F003011143CBF80010E9E7E5
:103CF000FFF7AEFBA0EB090064283BD8134800682F
:103D0000C005F5D5BCBBDFF84090B5F8B01009F19F
:103D10004409D9F8000001F4407100F44070884271
:103D200011D0D9F80010D9F8002021F4407142F4E4
:103D30008032C9F80020D9F8002022F48032C9F876
:103D40000020C9F8001003E02C4402580048025833
:103D5000D5F8B000B0F5807F19D1FFF779FB02905C
:103D600011E000BFFFF774FB0299411A41F288305D
:103D7000814208D9032426462878DFF81494C043EA
:103D8000C00721D03CE0D9F800008007EAD5D5F87B
:103D9000B010C1F301200328FE480DD0016821F4C2
:103DA0007C510160B5F8B020D9F80010C2F30B02C5
:103DB0001143C9F80010DFE7F74A036802EA11125D
:103DC00023F47C511143ECE7A86F182816D005DCCA
:103DD000A0B1082808D0102804D10AE020280DD06E
:103DE00028280BD001240AE00198012101F040FDB0
:103DF00003E00098012101F0CBFD044664B12646A2
:103E00002878C04380071ED4686F062819D2DFE8DF
:103E100000F0160C11161616AA6FD9F8001021F032
:103E200038011143C9F80010EAE70198012101F0B7
:103E30001FFD03E00098012101F0AAFD04467CB1BA
:103E400000E0012426462878C04340071FD4D5F857
:103E50009000062819D2DFE800F0160C111616168D
:103E60006A6FD9F8001021F007011143C9F800105A
:103E7000E9E70198012101F0FBFC03E00098012132
:103E800001F086FD0446A4B100E00124264628780E
:103E9000C04380062BD4D5F88C00B0F1405F24D00D
:103EA00011DC10B3B0F1805F15D0B0F1005F10D11C
:103EB00016E0D5F89020D8F8001021F00701114342
:103EC000C8F80010E3E7B0F1804F0ED0B0F1A04F7A
:103ED0000BD001240AE00198002101F0C9FC03E0A5
:103EE0000098022101F054FD044694B1264628783A
:103EF000C04340062BD4D5F89800B0F5406F24D0CD
:103F000011DC10B3B0F5806F15D0B0F5006F10D193
:103F100016E0D5F88C20D9F8001021F0E0411143CB
:103F2000C9F80010E3E7B0F5805F0ED0B0F5A05FF0
:103F30000BD001240AE00198002101F099FC03E074
:103F40000098022101F024FD044694B12646287809
:103F5000C04300062BD4D5F89C00B0F5C04F24D048
:103F600011DC10B3B0F5005F15D0B0F5804F10D163
:103F700016E0D5F89820D8F8001021F4E05111434C
:103F8000C8F80010E3E7B0F5004F0ED0B0F5204FB1
:103F90000BD001240AE00198002101F069FC03E044
:103FA0000098022101F0F4FC044654B1264628781A
:103FB000C04300071ED4D5F88000B0F5805F0AD05A
:103FC0000FE0D5F89C20D8F8001021F4604111438F
:103FD000C8F80010EBE70098022101F0D9FC00B10D
:103FE0000126D5F88020D9F8001021F44051114362
:103FF000C9F800102878C043C00613D4D5F894003F
:10400000B0F5807F05D10098022101F0C1FC00B11C
:104010000126D5F89420D8F8001021F440711143FE
:10402000C8F800102868C043000316D4D5F8A000D3
:1040300038B1B0F5803F09D0B0F5003F0BD0012476
:104040000AE00198002101F013FC03E0009802212E
:1040500001F09EFC04468CB126462868C04340030C
:1040600022D4D5F88400B0F5801F11D0B0F5001F20
:1040700013D0B0F5401F15D0012414E0D5F8A020CE
:10408000D8F8001021F440311143C8F80010E4E7DB
:10409000386840F40030386004E00098012101F0F5
:1040A00077FC04465CB126462868C043C0031CD494
:1040B000286D70B1B0F5803F10D0012414E0D5F820
:1040C0008420D9F8001021F440111143C9F80010E0
:1040D000EAE7386840F40030386004E001980221D3
:1040E00001F0C6FB0446DCB126462868C0438000C8
:1040F00005D40098022101F04BFC00B1012628688C
:10410000C04380031BD4E86FB8B1B0F5807F10D0F6
:10411000B0F5007F11D0B0F5407F0ED001240DE046
:104120002A6DDBF8001021F480311143CBF8001028
:10413000DBE7386840F4003038607CB326462868F6
:10414000C043C00207D42A6FDAF8001021F0004102
:104150001143CAF800102868C043800207D4AA6E31
:10416000DAF8001021F080711143CAF800102868B5
:10417000C043400009D40748016821F400410160B0
:104180000168D5F8B420114301602868C04306E0F7
:104190005444025810440258CFFFFF001DE007D4DA
:1041A0006A6DDBF8001021F040511143CBF800108C
:1041B0002868C043000208D4D5F88820D9F8001038
:1041C00021F440011143C9F8001028790024C043AC
:1041D00000F00100204309D00EE0EA6FD9F800108A
:1041E00021F440711143C9F80010A8E7019800219B
:1041F00001F03EFB00B106462879C04300F0020002
:10420000204305D10198012101F032FB00B106469F
:104210002879C04300F00400204305D10198022111
:1042200001F026FB00B106462879C04300F00800E3
:10423000204305D10098002101F0AAFB00B10646F9
:104240002879C04300F01000204305D100980121D7
:1042500001F09EFB00B106462879C04300F0200023
:10426000044304D10098022101F092FB00B916B179
:104270000120BDE8FE8F0020FBE700002DE9F05F84
:1042800004000F467ED0DFF83882D8F8000000F036
:104290000F00B8420CD2D8F8001021F00F013943BA
:1042A000C8F80010D8F8000000F00F00B84269D13B
:1042B0002078844D40070AD52069296801F07001F3
:1042C000884204D9296821F07001014329602078CF
:1042D0007C4E361D00070AD56069316801F0700117
:1042E000884204D9316821F070010143316020789F
:1042F000C0060AD5A069316801F4E061884204D99A
:10430000316821F4E061014331602078DFF8B4B115
:1043100080060BF1080B0CD5E1695846DBF800204C
:1043200002F07002914204D9026822F070020A433E
:104330000260207880070AD5E068296801F00F0143
:10434000884204D9296821F00F01014329602078AF
:10435000C0073ED05B49A2682868183920F4706015
:10436000104328606068022818D0032819D0096813
:10437000012819D0490700294ADADFF848A1AAF133
:10438000080A00E044E0DAF8002022F007020243C5
:10439000CAF80020FFF75CF8814612E0096889033B
:1043A000E9E709688901E6E7C905E4E7FFF750F89E
:1043B000A0EB090141F28830814202D90320BDE817
:1043C000F09F6168DAF8000000F03800B0EBC10F30
:1043D000ECD1207880070AD5E068296801F00F0148
:1043E000884204D2296821F00F0101432960D8F8DE
:1043F0000010404601F00F01B9420BD9016821F0CD
:104400000F0139430160006800F00F00B84201D08D
:104410000120D4E7207840070AD52069296801F0F7
:104420007001884204D2296821F07001014329609B
:10443000207800070AD56069316801F07001884270
:1044400004D2316821F07001014331602078C00648
:104450000AD5A069316801F4E061884204D231686C
:1044600021F4E06101433160207880060CD5E169D8
:104470005846DBF8002002F07002914204D2026834
:1044800022F070020A43026000F06CF80E492A68BC
:104490002B68C2F3032203F00F038A5CC95C02F0AD
:1044A0001F0201F01F01D040084A20FA01F11160FB
:1044B0000749086007480068BDE8F05FFFF704B8E7
:1044C0000020005218440258FC7900087C000024A7
:1044D000780000247000002430B500F043F80B4A47
:1044E0000B490C4B15681468C5F3032204F00F0444
:1044F0008A5C095D02F01F0201F01F01D040064AEC
:1045000020FA01F119601060084630BD18440258C5
:10451000FC7900087C0000247800002400B5FFF737
:10452000DBFF05490968054AC1F30211515C01F03E
:104530001F01C84000BD00001C440258FC7900085F
:1045400000B5FFF7C9FF05490968054AC1F3022113
:10455000515C01F01F01C84000BD00001C4402581E
:10456000FC790008454970B545480968434B103B44
:1045700011F0380208D00111082A03D0102A0BD0FC
:10458000182A0BD0084670BD19688906FBD5196832
:10459000C1F3C101C84070BD3A4870BD3749374DBD
:1045A00018310C1D24350A68096826682D6802F048
:1045B000030406F00102C1F30511C5F3CC0515FB98
:1045C00002F200EE102AB8EE400AE9B32F4ADFEDFE
:1045D0002E0AB7EE001A6CB1DFED2D1A012C01D0B6
:1045E000022C43D002EE101A1068F8EE422A81EE37
:1045F000A22A1EE01C68A40611D51B6801EE901AC1
:104600001168C3F3C103F8EE612AD84001EE900AA5
:10461000C1F30800F8EE611A81EEA22A0BE001EE68
:10462000901ADFED1C2A00BFF8EE611A106882EEC6
:10463000A12AC0F3080001EE900AF8EE611A40EEDC
:10464000201A31EE810A00E015E022EE000A10681F
:10465000C0F34620401C00EE900AF8EE600A80EE9F
:10466000201ABCEEC10A10EE100A70BD01EE901ABD
:10467000DFED092AD8E7002070BD00001044025881
:104680000090D00340787D0100000039304402588A
:104690000024744A0024744C20BCBE4B2DE9F05F0A
:1046A00004007DD0FF4F2078FE4D1837DFF8F483EB
:1046B000103DC00748D0D8F80000396800F0380035
:1046C000102815D0182803D101F0030002280FD0BC
:1046D0006068B0F5803F12D010B1B0F5A02F18D0AF
:1046E000286820F480302860286820F4802009E0C1
:1046F0002868800328D560680028D2D024E0286884
:1047000040F480302860606888B1FEF7A1FE06465C
:1047100009E0286840F480202860F0E7FEF798FE62
:10472000801B64287ED828688003F7D50CE0FEF74C
:104730008FFE064605E000BFFEF78AFE801B642858
:10474000F0D828688003F7D42078800756D5D8F8A9
:104750000000DFF85093396810F03800A9F10C0917
:104760000ED0182801D188070AD0E068A8B32968BC
:1047700021F0190101432960FEF76AFE064628E090
:104780002868400702D5E06800288AD0E1682868D8
:1047900020F0190008432860FEF75AFE064606E09E
:1047A000D2E000BFFEF754FE801B0228BAD828686A
:1047B0004007F7D5217CD9F8002022F0FE4242EADA
:1047C0000161C9F8001019E0FEF742FE801B0228C3
:1047D000A8D828684007F7D5ECE7FFE7286820F05D
:1047E00001002860FEF734FE064604E0FEF730FEC6
:1047F000801B022896D828684007F7D42078C00686
:1048000046D5D8F80000DFF89C92396800F03800EF
:10481000A9F10409082812D0182805D101F00300D5
:10482000012800E0CEE00AD0E0690028286820D006
:1048300040F080002860FEF70BFE064615E0286871
:10484000C00502D5E06980287ED194F82010D9F8FF
:10485000002022F07C5242EA0161C9F8001017E002
:10486000FEF7F6FD801B0228A0D82868C005F7D502
:10487000EBE720F080002860FEF7EAFD064604E042
:10488000FEF7E6FD801B022890D82868C005F7D403
:104890002078000729D58348616964300029814662
:1048A000016811D041F001010160FEF7D1FD06461B
:1048B00005E000BFFEF7CCFD801B022888D8D9F8A0
:1048C00000008007F6D510E021F001010160FEF73D
:1048D000BFFD064605E000BFFEF7BAFD801B0228BB
:1048E00070D8D9F800008007F6D42078800623D548
:1048F000A0690028286810D040F480502860FEF796
:10490000A7FD064605E000BFFEF7A2FD801B0228BA
:1049100058D828688004F7D50EE020F4805028602D
:10492000FEF796FD064604E0FEF792FD801B022886
:1049300048D828688004F7D42078400751D5DFF89C
:104940006891D9F8001000E015E141F48071C9F8D0
:104950000010FEF77DFD064605E000BFFEF778FD7E
:10496000801B64282ED8D9F80000C005F6D54D4E1E
:10497000A068603601280AD008B1052813D0306835
:1049800020F001003060306820F0040002E0306860
:1049900040F001003060A06841F2883A98B1FEF71B
:1049A00057FD81460AE0306840F004003060EEE7D1
:1049B000FEF74EFDA0EB0901514503D83068800792
:1049C000F6D50EE072E0FEF743FD814606E000BF3B
:1049D000FEF73EFDA0EB0901514567D8306880071E
:1049E000F6D4606A00287CD0DFF8B8A0D8F80010B0
:1049F0000AF1200A4FF6F87B0AF10408C1F3C2015C
:104A00000329AAF104096DD00228286820F08070DB
:104A1000286003D0FEF71CFD044681E0FEF718FD78
:104A2000064604E0FEF714FD801B022875D82868AE
:104A30008001F7D4E26A40F2F331386854F8283F35
:104A4000884340EA021018433860217B4FF4FE0C83
:104A500022894FF0FE47208A4902267D521E401EC1
:104A6000A1F5007189B2C2F308021143761E0CEA67
:104A700000400143484607EA06621143CAF80010A5
:104A8000D9F8001021F00101C9F80010D8F8003061
:104A9000266A23EA0B0343EAC601C8F80010D9F8D6
:104AA000001004E0104402580048025835E0A269A2
:104AB00021F00C011143C9F800100168E26921F0EE
:104AC000020111430160016841F480310160016815
:104AD00041F400310160016841F480210160016806
:104AE00001E06CE020E041F001010160286840F045
:104AF00080702860FEF7ACFC044604E0FEF7A8FCDA
:104B0000001B022809D828688001F7D557E000BFAC
:104B1000FEF79EFC001B022802D90320BDE8F09F8F
:104B200028688001F4D44AE039680128DAF80000E6
:104B300021D0A26A01F0030393421CD1E26AC1F3BF
:104B400005118A4217D1216BC0F30802491E8A421F
:104B500011D1616BC0F34622491E91420BD1A16B6A
:104B6000C0F30642491E914205D1E16BC0F30660D5
:104B7000491E814201D00120D0E7A16C4646D8F8F9
:104B80000000C0F3CC00814219D0D9F800004D4696
:104B900020F00100C9F80000FEF75AFC4FEA0007B8
:104BA000FEF756FCB842FBD0A26C306820EA0B003E
:104BB00040EAC2003060286840F001002860002010
:104BC000ACE7401EB0F1807F10B501D3012010BDCD
:104BD0004FF0E02460610F21601702F05AFB0020C3
:104BE000A0610721216110BD30B590F88410012922
:104BF00018D0012280F884202421C0F888100022D7
:104C0000202401680B680D6823F0005325F001058E
:104C10000D60426601680B60C0F8884080F884200F
:104C2000104630BD022030BD10B50446D0F88C00CF
:104C3000202801D0022010BD61B15AB10123E366E2
:104C400000202067204602F0EBF90028F3D1E16E46
:104C5000012901D0012010BD2268102111622268B3
:104C600052E8001F41F0100142E80013002BF6D17A
:104C700010BD00002DE9F04700681D4A904234D174
:104C8000802900D980211B48DFF86C800F46A0F5F1
:104C9000D4768246A0F59479826B521C82630024FC
:104CA0001DE000BFB8F8020001F01AF90546B8F897
:104CB000040085420AD1B8F8040001F011F9A8F8FF
:104CC0000400DAF83410491CCAF83410325DB8F820
:104CD0000230641CA4B209F80320A8F80250BC42B8
:104CE000E0D3BDE8F04701F057B9BDE8F087000018
:104CF000004800407405002400000024704770B58F
:104D0000044690F8840001281DD0012284F88420F4
:104D10002420C4F8880020680568026822F0010297
:104D200002602068826822F060620A438260204646
:104D300001F0EEFA2268202100201560C4F88810E6
:104D400084F8840070BD022070BD70B5044690F8F0
:104D5000840001281DD0012284F884202420C4F876
:104D6000880020680568026822F00102026020685D
:104D7000826822F060420A438260204601F0C8FA4D
:104D80002268202100201560C4F8881084F884006F
:104D900070BD022070BD70477047000070B50446BA
:104DA000216851E8000F20F4907041E80002002AC9
:104DB000F6D1234A2068083050E8001F114040E82F
:104DC0000013002BF6D1E06E012808D1216851E8CC
:104DD000000F20F0100041E80002002AF6D1206800
:104DE00000258068400618D52068083050E8001F6C
:104DF00021F0400140E80012002AF5D1D4F88000EB
:104E000058B10565D4F88000FCF7B0FA28B1D4F8A1
:104E10008000FCF769FD20280DD022680F2020219A
:104E200010622068826942F008028261C4F88C1026
:104E3000E566002070BD1020C4F89000032070BD0E
:104E4000FEFFFFEF134A0168914221D112490A6C1B
:104E5000521C0A64D0F89020120702D54A6C521CEA
:104E60004A64D0F89020520702D58A6C521C8A649A
:104E7000D0F89020920702D5CA6C521CCA64D0F8B0
:104E80009000C00702D0086D401C086501F084B88E
:104E90007047000000480040740500242DE9F041EF
:104EA00007680025044640F60F030226F8693968B2
:104EB000BA6818420AD183067ED501F0200302F0B9
:104EC000805C53EA0C0377D0616F7EE1D44BDFF84E
:104ED00054C3134001EA0C0C53EA0C0C6CD05FEA8B
:104EE000C07C0CD05FEAC15C09D54FF0010CC7F85B
:104EF00020C0D4F8907047F00107C4F8907087077D
:104F000009D5D70707D027683E62D4F8906046F0ED
:104F10000406C4F8906046070AD5D60708D027686B
:104F200004263E62D4F8906046F00206C4F8906011
:104F300006070CD501F020061E4308D0266808237A
:104F40003362D4F8903043F00803C4F8903003057E
:104F50000BD54B0109D526684FF400633362D4F8B2
:104F6000903043F02003C4F89030D4F89030002BF8
:104F70003DD0800609D501F0200002F080510843A1
:104F800003D0616F09B1204688472168D4F89000AA
:104F90008968490602D410F0280F2AD0204601F073
:104FA000A7FB2068806840061ED52068083050E8BE
:104FB000001F21F0400100E021E040E80012002A3B
:104FC000F3D1D4F8800078B197490165D4F8800016
:104FD000FCF77CFB00280AD0D4F88000016D00E0CB
:104FE0002046BDE8F04108472046FFF72BFFBDE80B
:104FF000F0812046FFF726FFC4F89050F7E7D4F879
:105000006CC02023BCF1010F7ED15FEAC06C7BD560
:105010005FEAC16C78D5102038622068806840064D
:1050200073D5D4F8802081491068884234D07F49F4
:105030001831884230D07D49303188422CD07B49AC
:105040004831884228D079496031884224D0774954
:105050007831884220D07549903188421CD07349FC
:10506000A831884218D07249884215D07049183149
:10507000884211D06E49303188420DD06C49483198
:10508000884209D06A496031884205D06849783140
:10509000884201D06649903140684FF4807700041F
:1050A000000C40D0B4F85C1081423CD9A4F85E00FA
:1050B000D069B8422FD0216851E8000F20F48070E9
:1050C00041E80002002AF6D12068083050E8001FAD
:1050D00021F0010140E80012002AF5D120680830D3
:1050E00050E8001F21F0400140E80012002AF5D1ED
:1050F000C4F88C30E566206850E8001F21F01001EC
:1051000040E80012002A01E04AE019E0F3D1D4F8A7
:105110008000FCF72BF92667B4F85C00B4F85E1049
:10512000401A81B208E0B4F85C1081427FF466AFA7
:10513000D069B842FAD126672046FFF79BFD56E7B3
:10514000B4F85C00B4F85E10B4F85E20401A81B286
:10515000002AF4D00029F2D0226852E8000F20F48F
:10516000907042E80007002FF6D1324F206800F11E
:10517000080050E8002F02EA070240E8002CBCF1CA
:10518000000FF3D1C4F88C30E5666567226852E8F9
:10519000000F20F0100042E80003002BF6D1CAE710
:1051A000C60209D5560207D54FF480103862204652
:1051B000BDE8F041FFF7F0BD06060AD501F0800614
:1051C00002F40002164304D0A16F00297FF408AF57
:1051D0000DE7420611D54A060FD52046016851E871
:1051E000002F22F0400241E80024002CF6D1C0F844
:1051F0008830856700F089F9F9E6020206D54A0091
:1052000004D52046BDE8F041FFF7C5BDC00196D5E5
:10521000002994DA2046BDE8F041FFF76FBD000099
:105220000100001020010004C764000810000240C3
:1052300010040240FEFFFFEF10B5040003D0D4F8C5
:10524000880010B107E0012010BD002084F8840020
:10525000204600F027F82420C4F888002068016860
:1052600021F001010160A06A10B1204601F072F83E
:10527000204601F0E7FC0128E6D02068416821F4CF
:10528000904141602068816821F02A018160206896
:10529000016841F0010101602046BDE8104001F0C5
:1052A000BDB800002DE9F047B4B0074614212EA880
:1052B000FBF76EF9B8216846FBF76AF96B4C0226DA
:1052C0006B4907253868103CDFF8A0914FF0C00A01
:1052D00088424FF0000830D10020CDF878800121BD
:1052E000CDE900106846FEF72BFB08B1FBF7E2FEA4
:1052F000D9F8001041F01001C9F80010D9F80000E9
:1053000000F010003390206840F002002060206818
:105310002EA9CDF8B8A000F00200CDE92F68CDF895
:10532000C480CDE932505348FDF77AFF00220221B4
:105330002520FEF753F925205EE04F49884260D1D1
:105340000020CDF874800222CDE900206846FEF7E7
:10535000F7FA08B1FBF7AEFE44480838016841F49B
:1053600080210160006800F480203390206840F0C4
:105370000800206020682EA9444600F00800339001
:105380004FF440702E90CDE92F683C48CDE931852F
:10539000FDF746FF3A4E2D223A494FF480683046D9
:1053A00086E81600C6E903487461B461F4613462AA
:1053B0007462FCF70FFE08B1FBF77CFE304D2E2225
:1053C000304940237835C7F880601831B7632846E4
:1053D00085E81E016C61AC61EC612C626C62FCF7CB
:1053E000F9FD08B1FBF766FE0022FD672720114694
:1053F000AF63FEF7F3F82720FEF7E2F834B0BDE81C
:10540000F08721498842F9D10020CDF87880012128
:10541000CDE900106846FEF793FA08B1FBF74AFEA3
:10542000D9F8001041F02001C9F80010D9F80000A7
:1054300000F020003390206840F0040020602068D5
:105440002EA9CDF8B8A000F00400CDE92F68CDF862
:10545000C480CDE932500D48FDF7E2FE0022032161
:105460004720FEF7BBF84720C6E70000F04402588B
:10547000001001400004025800480040000C02588F
:10548000DC02002410000240001401400008025811
:1054900030B4D0F88C30202B02D0022030BC7047C2
:1054A000A9B1A2B10B4D00240368C466AB420BD076
:1054B0005B681B0208D5046854E8003F43F0806332
:1054C00044E80035002DF6D130BC01F0FDBD0120CF
:1054D000E4E70000000C005810B500680749884256
:1054E0000AD10748007802F07FF9BDE8104004496E
:1054F00001220448FFF7CCBF10BD0000001001409E
:105500005C0000242001002470477047FEE7000083
:105510000D4808B5016841F00101016000680022F2
:10552000114600F0010000900B20FEF757F80B2009
:10553000FEF746F800220C201146FEF74FF8BDE8B2
:1055400008400C20FEF73CB8D84402581848002107
:105550002DE9F041154D012381600C2605600F27D0
:10556000C1600A2501740422417402248174C76158
:10557000C0E90563C0E90826C0E90A35C0E90C2185
:105580000464C0E90E31C0E91121C0E91321C0E96A
:105590001521C0E91714C0E91912FDF763FB08B122
:1055A000FBF788FDBDE8F041FBF7A0BD00A000407F
:1055B000800000242DE9F04387B014216846FAF7F3
:1055C000E7FF2B48016841F001010160016801F02B
:1055D00001010591016841F004010160016801F0D9
:1055E00004010591016841F002010160016801F0C8
:1055F00002010591016841F080010160016801F03C
:1056000080010591016841F008010160016801F025
:1056100008010591016841F04001016000684FF404
:105620008076DFF85080002200F04000314605907F
:105630004046FDF707FFDFF840903701002239466A
:105640004846FDF7FFFE00240096012569464046C6
:10565000CDE901540394FDF7E3FD00976946CDE9D8
:10566000015448460394FDF7DBFD07B0BDE8F08325
:10567000E044025800180258000C02581848002153
:1056800010B5164C0C224FF4E1330460C0E901312F
:10569000C160C0E904128161C1610162416281623D
:1056A000FFF7CAFD08B1FBF705FD0D480021FFF724
:1056B0004CFB08B1FBF7FEFC09480021FFF71FFB7C
:1056C00008B1FBF7F7FC0648FFF78EFA002803D075
:1056D000BDE81040FBF7EEBC10BD0000001001401B
:1056E000200100241848002110B5164C0C224FF45C
:1056F000E1330460C0E90131C160C0E90412816195
:10570000C161016241628162FFF796FD08B1FBF75A
:10571000D1FC0D480021FFF718FB08B1FBF7CAFCCC
:1057200009480021FFF7EBFA08B1FBF7C3FC064874
:10573000FFF75AFA002803D0BDE81040FBF7BABCC7
:1057400010BD000000480040B401002418480021AA
:1057500010B5164C0C224FF4E1330460C0E901315E
:10576000C160C0E904128161C1610162416281626C
:10577000FFF762FD08B1FBF79DFC0D480021FFF724
:10578000E4FA08B1FBF796FC09480021FFF7B7FAE5
:1057900008B1FBF78FFC0648FFF726FA002803D074
:1057A000BDE81040FBF786BC10BD000000140140AE
:1057B0004802002410B5FDF74BFE044600F0C8FC7B
:1057C00005490868201A0A2804D30C60BDE8104077
:1057D000FAF7EEBF10BD000068000024FEE70000ED
:1057E00010B52DED028B9FED0E8AB0EE480A01F048
:1057F00059FF00EE100A0B4CB8EEC00A84ED020A05
:10580000B0EE480A01F04EFF00EE100A06490120F2
:10581000B8EEC00A84ED030A0870BDEC028B10BD1F
:1058200000000000FC0500240800002410B50D4C09
:105830002078002814D14FF4FA7101F0BBFD68B153
:10584000FDF706FE6168401AC82809D3FDF700FE7F
:105850006060BDE810400448FAF76ABF012020707C
:1058600010BD00006000002480000024FEE77047A7
:105870002DE9F047454D044689464FF0000A286857
:10588000C04380070AD0414E283E306820F0806037
:105890003060FDF7DDFD0746B04608E00120BDE8B9
:1058A000F08700BFFDF7D4FDC01B022867D8D8F8E9
:1058B00000000001F6D4206829684FF4FE0721F4A7
:1058C0007C313E0241EA00302860207AA389B4F896
:1058D00004C040022D4D2D495B1E227CACF1010C11
:1058E0001035091DA0F5007080B2521ECCF3080CD3
:1058F00007EA034340EA0C00184306EA0262104339
:1059000028600868626920F0C000104308600A68D7
:10591000A06922F0200202430A60281D0A6822F0D2
:1059200010020A6002684FF6F873E4699A4342EA8B
:10593000C40202600868B9F1000F40F010020A606A
:1059400011D00868B9F1010F11D040F400100860BF
:10595000D8F80000444640F08060C8F80000FDF729
:1059600077FD05460DE0086840F40020EFE740F4BD
:105970008010ECE7FDF76CFD401B022801D90320E5
:105980008DE720680001F5D5504688E72844025885
:105990002DE9F047454D044689464FF0000A286836
:1059A000C04380070AD0414E283E306820F0805026
:1059B0003060FDF74DFD0746B04608E00120BDE828
:1059C000F08700BFFDF744FDC01B022867D8D8F858
:1059D00000008000F6D4208829684FF4FE0721F0EB
:1059E0007C713E0241EA00502860207AA389B4F815
:1059F00004C040022D4D2D495B1E227CACF1010CF0
:105A00001835091DA0F5007080B2521ECCF3080CA9
:105A100007EA034340EA0C00184306EA0262104317
:105A200028600868626920F44060104308600A68D2
:105A3000A06922F4007202430A60281D0A6822F459
:105A400080720A6002684FF6F873E4699A4342EA8A
:105A5000C40202600868B9F1000F40F480720A6065
:105A600011D00868B9F1010F11D040F080700860C2
:105A7000D8F80000444640F08050C8F80000FDF718
:105A8000E7FC05460DE0086840F48000EFE740F4CD
:105A90000000ECE7FDF7DCFC401B022801D90320E5
:105AA0008DE720688000F5D5504688E728440258E5
:105AB0002DE9F047A24D2DED028B95F8220060BB39
:105AC00095F8230048BB9F4C0126DFF87CA2207A82
:105AD00038B9FDF7BDFCDAF81010401AC8287CD39D
